{
  "contractName": "admined",
  "abi": [
    {
      "constant": true,
      "inputs": [],
      "name": "admin",
      "outputs": [
        {
          "name": "",
          "type": "address"
        }
      ],
      "payable": false,
      "stateMutability": "view",
      "type": "function"
    },
    {
      "inputs": [],
      "payable": false,
      "stateMutability": "nonpayable",
      "type": "constructor"
    },
    {
      "constant": false,
      "inputs": [
        {
          "name": "newAdmin",
          "type": "address"
        }
      ],
      "name": "transferAdminship",
      "outputs": [],
      "payable": false,
      "stateMutability": "nonpayable",
      "type": "function"
    }
  ],
  "bytecode": "0x608060405234801561001057600080fd5b50336000806101000a81548173ffffffffffffffffffffffffffffffffffffffff021916908373ffffffffffffffffffffffffffffffffffffffff160217905550610243806100606000396000f30060806040526004361061004c576000357c0100000000000000000000000000000000000000000000000000000000900463ffffffff1680635be7cc1614610051578063f851a44014610094575b600080fd5b34801561005d57600080fd5b50610092600480360381019080803573ffffffffffffffffffffffffffffffffffffffff1690602001909291905050506100eb565b005b3480156100a057600080fd5b506100a96101f2565b604051808273ffffffffffffffffffffffffffffffffffffffff1673ffffffffffffffffffffffffffffffffffffffff16815260200191505060405180910390f35b6000809054906101000a900473ffffffffffffffffffffffffffffffffffffffff1673ffffffffffffffffffffffffffffffffffffffff163373ffffffffffffffffffffffffffffffffffffffff161415156101af576040517f08c379a00000000000000000000000000000000000000000000000000000000081526004018080602001828103825260158152602001807f53656e646572206e6f7420617574686f72697a6564000000000000000000000081525060200191505060405180910390fd5b806000806101000a81548173ffffffffffffffffffffffffffffffffffffffff021916908373ffffffffffffffffffffffffffffffffffffffff16021790555050565b6000809054906101000a900473ffffffffffffffffffffffffffffffffffffffff16815600a165627a7a7230582046df08ec16c83c0bdf16887161845392080b38ae25b3c83589b3180c90d638b80029",
  "source": "pragma solidity ^0.4.8;\n\ncontract admined {\n  address public admin;\n\n  constructor() public {\n    admin = msg.sender;\n  }\n\n  modifier onlyAdmin() {\n    require(\n      msg.sender == admin,\n      \"Sender not authorized\"\n    );\n    _;\n  }\n\n  function transferAdminship(address newAdmin) public onlyAdmin {\n    admin = newAdmin;\n  }\n}\n\ncontract AnaheraCoin {\n  mapping (address => uint256) public balanceOf;\n  mapping (address => mapping(address=> uint256)) public allowance;\n  string public standard = \"AnaheraCoin\";\n  string public name;\n  string public symbol;\n  uint8 public decimals;\n  uint256 public totalSupply;\n  event Transfer(address indexed from, address indexed to, uint value);\n\n  constructor(uint256 initialSupply, string tokenName, string tokenSymbol, uint8 decimalUnits) public {\n    balanceOf[msg.sender] = initialSupply;\n    totalSupply = initialSupply;\n    name = tokenName;\n    symbol = tokenSymbol;\n    decimals = decimalUnits;\n  }\n\n  function transfer(address _to, uint256 _value) public {\n    require(\n      balanceOf[msg.sender] >= _value,\n      \"Insufficient funds\"\n      );\n    require(\n      balanceOf[_to] + _value >= balanceOf[_to],\n      \"Initial balance is higher than current balance\"\n    );\n    balanceOf[msg.sender] -= _value;\n    balanceOf[_to] += _value;\n    emit Transfer(msg.sender, _to, _value);\n  }\n\n  function approve(address _spender, uint256 _value) public view returns (bool success) {\n    allowance[msg.sender][_spender] >= _value;\n    return true;\n  }\n\n  function transferFrom(address _from, address _to, uint256 _value) public returns (bool success) {\n    require(\n      balanceOf[_from] >= _value,\n      \"Insufficient funds\"\n    );\n    require(\n      balanceOf[_to] + _value >= balanceOf[_to],\n      \"Initial balance is higher than current balance\"\n    );\n    balanceOf[_from] -= _value;\n    balanceOf[_to] += _value;\n    allowance[_from][msg.sender] -= _value;\n    emit Transfer(_from, _to, _value);\n    return true;\n  }\n}\n",
  "sourcePath": "/home/lovro/erc20/contracts/anahera.sol",
  "compiler": {
    "name": "solc",
    "version": "0.4.24+commit.e67f0147.Emscripten.clang"
  },
  "schemaVersion": "2.0.1",
  "updatedAt": "2018-08-29T18:06:14.265Z"
}